{
  "contractName": "dBank",
  "abi": [
    {
      "inputs": [
        {
          "internalType": "contract Token",
          "name": "_token",
          "type": "address"
        }
      ],
      "stateMutability": "nonpayable",
      "type": "constructor"
    },
    {
      "anonymous": false,
      "inputs": [
        {
          "indexed": false,
          "internalType": "address",
          "name": "_user",
          "type": "address"
        },
        {
          "indexed": false,
          "internalType": "uint256",
          "name": "_etherAmount",
          "type": "uint256"
        },
        {
          "indexed": false,
          "internalType": "uint256",
          "name": "_timeStart",
          "type": "uint256"
        }
      ],
      "name": "Deposit",
      "type": "event"
    },
    {
      "anonymous": false,
      "inputs": [
        {
          "indexed": false,
          "internalType": "address",
          "name": "_user",
          "type": "address"
        },
        {
          "indexed": false,
          "internalType": "uint256",
          "name": "_etherAmount",
          "type": "uint256"
        },
        {
          "indexed": false,
          "internalType": "uint256",
          "name": "_depositTime",
          "type": "uint256"
        },
        {
          "indexed": false,
          "internalType": "uint256",
          "name": "_interest",
          "type": "uint256"
        }
      ],
      "name": "Withdraw",
      "type": "event"
    },
    {
      "inputs": [
        {
          "internalType": "address",
          "name": "",
          "type": "address"
        }
      ],
      "name": "depositStart",
      "outputs": [
        {
          "internalType": "uint256",
          "name": "",
          "type": "uint256"
        }
      ],
      "stateMutability": "view",
      "type": "function",
      "constant": true
    },
    {
      "inputs": [
        {
          "internalType": "address",
          "name": "",
          "type": "address"
        }
      ],
      "name": "etherBalanceOf",
      "outputs": [
        {
          "internalType": "uint256",
          "name": "",
          "type": "uint256"
        }
      ],
      "stateMutability": "view",
      "type": "function",
      "constant": true
    },
    {
      "inputs": [
        {
          "internalType": "address",
          "name": "",
          "type": "address"
        }
      ],
      "name": "isDeposited",
      "outputs": [
        {
          "internalType": "bool",
          "name": "",
          "type": "bool"
        }
      ],
      "stateMutability": "view",
      "type": "function",
      "constant": true
    },
    {
      "inputs": [],
      "name": "deposit",
      "outputs": [],
      "stateMutability": "payable",
      "type": "function",
      "payable": true
    },
    {
      "inputs": [],
      "name": "withdraw",
      "outputs": [],
      "stateMutability": "nonpayable",
      "type": "function"
    },
    {
      "inputs": [],
      "name": "borrow",
      "outputs": [],
      "stateMutability": "payable",
      "type": "function",
      "payable": true
    },
    {
      "inputs": [],
      "name": "payOff",
      "outputs": [],
      "stateMutability": "nonpayable",
      "type": "function"
    }
  ],
  "bytecode": "0x608060405234801561001057600080fd5b50604051610dcf380380610dcf8339818101604052810190610032919061008d565b806000806101000a81548173ffffffffffffffffffffffffffffffffffffffff021916908373ffffffffffffffffffffffffffffffffffffffff16021790555050610111565b600081519050610087816100fa565b92915050565b60006020828403121561009f57600080fd5b60006100ad84828501610078565b91505092915050565b60006100c1826100da565b9050919050565b60006100d3826100b6565b9050919050565b600073ffffffffffffffffffffffffffffffffffffffff82169050919050565b610103816100c8565b811461010e57600080fd5b50565b610caf806101206000396000f3fe6080604052600436106100705760003560e01c8063737320241161004e57806373732024146100e0578063d0e30db01461011d578063e68d356914610127578063ff87930a1461013157610070565b8063179fc99f146100755780633ccfd60b146100b25780633fac68d5146100c9575b600080fd5b34801561008157600080fd5b5061009c600480360381019061009791906107f9565b61016e565b6040516100a99190610a7b565b60405180910390f35b3480156100be57600080fd5b506100c7610186565b005b3480156100d557600080fd5b506100de61051a565b005b3480156100ec57600080fd5b50610107600480360381019061010291906107f9565b61051c565b6040516101149190610a00565b60405180910390f35b61012561053c565b005b61012f6107ca565b005b34801561013d57600080fd5b50610158600480360381019061015391906107f9565b6107cc565b6040516101659190610a7b565b60405180910390f35b60016020528060005260406000206000915090505481565b60011515600360003373ffffffffffffffffffffffffffffffffffffffff1673ffffffffffffffffffffffffffffffffffffffff16815260200190815260200160002060009054906101000a900460ff16151514610219576040517f08c379a000000000000000000000000000000000000000000000000000000000815260040161021090610a5b565b60405180910390fd5b6000600160003373ffffffffffffffffffffffffffffffffffffffff1673ffffffffffffffffffffffffffffffffffffffff1681526020019081526020016000205490506000600260003373ffffffffffffffffffffffffffffffffffffffff1673ffffffffffffffffffffffffffffffffffffffff16815260200190815260200160002054426102aa9190610b88565b90506000662386f26fc10000600160003373ffffffffffffffffffffffffffffffffffffffff1673ffffffffffffffffffffffffffffffffffffffff168152602001908152602001600020546103009190610afd565b6301e3373161030f9190610b2e565b90506000828261031f9190610b2e565b90503373ffffffffffffffffffffffffffffffffffffffff166108fc859081150290604051600060405180830381858888f19350505050158015610367573d6000803e3d6000fd5b5060008054906101000a900473ffffffffffffffffffffffffffffffffffffffff1673ffffffffffffffffffffffffffffffffffffffff166340c10f1933836040518363ffffffff1660e01b81526004016103c392919061095b565b600060405180830381600087803b1580156103dd57600080fd5b505af11580156103f1573d6000803e3d6000fd5b505050506000600260003373ffffffffffffffffffffffffffffffffffffffff1673ffffffffffffffffffffffffffffffffffffffff168152602001908152602001600020819055506000600160003373ffffffffffffffffffffffffffffffffffffffff1673ffffffffffffffffffffffffffffffffffffffff168152602001908152602001600020819055506000600360003373ffffffffffffffffffffffffffffffffffffffff1673ffffffffffffffffffffffffffffffffffffffff16815260200190815260200160002060006101000a81548160ff0219169083151502179055507f02f25270a4d87bea75db541cdfe559334a275b4a233520ed6c0a2429667cca943385858460405161050c94939291906109bb565b60405180910390a150505050565b565b60036020528060005260406000206000915054906101000a900460ff1681565b60001515600360003373ffffffffffffffffffffffffffffffffffffffff1673ffffffffffffffffffffffffffffffffffffffff16815260200190815260200160002060009054906101000a900460ff161515146105cf576040517f08c379a00000000000000000000000000000000000000000000000000000000081526004016105c690610a1b565b60405180910390fd5b662386f26fc10000341015610619576040517f08c379a000000000000000000000000000000000000000000000000000000000815260040161061090610a3b565b60405180910390fd5b34600160003373ffffffffffffffffffffffffffffffffffffffff1673ffffffffffffffffffffffffffffffffffffffff168152602001908152602001600020546106649190610aa7565b600160003373ffffffffffffffffffffffffffffffffffffffff1673ffffffffffffffffffffffffffffffffffffffff1681526020019081526020016000208190555042600260003373ffffffffffffffffffffffffffffffffffffffff1673ffffffffffffffffffffffffffffffffffffffff168152602001908152602001600020546106f29190610aa7565b600260003373ffffffffffffffffffffffffffffffffffffffff1673ffffffffffffffffffffffffffffffffffffffff168152602001908152602001600020819055506001600360003373ffffffffffffffffffffffffffffffffffffffff1673ffffffffffffffffffffffffffffffffffffffff16815260200190815260200160002060006101000a81548160ff0219169083151502179055507f90890809c654f11d6e72a28fa60149770a0d11ec6c92319d6ceb2bb0a4ea1a153334426040516107c093929190610984565b60405180910390a1565b565b60026020528060005260406000206000915090505481565b6000813590506107f381610c62565b92915050565b60006020828403121561080b57600080fd5b6000610819848285016107e4565b91505092915050565b61082b81610bbc565b82525050565b61083a81610bce565b82525050565b600061084d602183610a96565b91507f4572726f723a204465706f73697420697320616c72656164792061637469766560008301527f2e000000000000000000000000000000000000000000000000000000000000006020830152604082019050919050565b60006108b3602283610a96565b91507f4572726f723a206465706f736974206d757374206265203e3d20302e3031455460008301527f482e0000000000000000000000000000000000000000000000000000000000006020830152604082019050919050565b6000610919601b83610a96565b91507f4572726f723a206e6f2070726576696f7573206465706f7369742100000000006000830152602082019050919050565b61095581610bfa565b82525050565b60006040820190506109706000830185610822565b61097d602083018461094c565b9392505050565b60006060820190506109996000830186610822565b6109a6602083018561094c565b6109b3604083018461094c565b949350505050565b60006080820190506109d06000830187610822565b6109dd602083018661094c565b6109ea604083018561094c565b6109f7606083018461094c565b95945050505050565b6000602082019050610a156000830184610831565b92915050565b60006020820190508181036000830152610a3481610840565b9050919050565b60006020820190508181036000830152610a54816108a6565b9050919050565b60006020820190508181036000830152610a748161090c565b9050919050565b6000602082019050610a90600083018461094c565b92915050565b600082825260208201905092915050565b6000610ab282610bfa565b9150610abd83610bfa565b9250827fffffffffffffffffffffffffffffffffffffffffffffffffffffffffffffffff03821115610af257610af1610c04565b5b828201905092915050565b6000610b0882610bfa565b9150610b1383610bfa565b925082610b2357610b22610c33565b5b828204905092915050565b6000610b3982610bfa565b9150610b4483610bfa565b9250817fffffffffffffffffffffffffffffffffffffffffffffffffffffffffffffffff0483118215151615610b7d57610b7c610c04565b5b828202905092915050565b6000610b9382610bfa565b9150610b9e83610bfa565b925082821015610bb157610bb0610c04565b5b828203905092915050565b6000610bc782610bda565b9050919050565b60008115159050919050565b600073ffffffffffffffffffffffffffffffffffffffff82169050919050565b6000819050919050565b7f4e487b7100000000000000000000000000000000000000000000000000000000600052601160045260246000fd5b7f4e487b7100000000000000000000000000000000000000000000000000000000600052601260045260246000fd5b610c6b81610bbc565b8114610c7657600080fd5b5056fea264697066735822122037446299587057ff7656c37b6943af7eb6a045d0b97c5cd41a7b2d8dbb4990df64736f6c63430008000033",
  "immutableReferences": {},
  "source": "// SPDX-License-Identifier: MIT\r\npragma solidity 0.8.0;\r\n\r\nimport \"./Token.sol\";\r\n\r\ncontract dBank {\r\n\r\n  //assign Token contract to variable\r\n    Token private token;    \r\n\r\n  //add mappings\r\n    mapping(address => uint) public etherBalanceOf;\r\n    mapping(address => uint) public depositStart;\r\n    mapping(address => bool) public isDeposited;\r\n    \r\n  //add events\r\n  event Deposit(address _user, uint _etherAmount, uint _timeStart);\r\n  event Withdraw(address _user, uint _etherAmount, uint _depositTime, uint _interest);\r\n\r\n  //pass as constructor argument deployed Token contract\r\n  constructor(Token _token) {\r\n    token = _token;\r\n  }\r\n\r\n  function deposit() payable public {\r\n    //check if msg.sender didn't already deposited funds\r\n    require(isDeposited[msg.sender] == false, \"Error: Deposit is already active.\");\r\n    //check if msg.value is >= than 0.01 ETH\r\n    require(msg.value >= 10**16, \"Error: deposit must be >= 0.01ETH.\");\r\n\r\n    //increase msg.sender ether deposit balance\r\n    etherBalanceOf[msg.sender] = etherBalanceOf[msg.sender] + msg.value;\r\n    \r\n    //start msg.sender hodling time\r\n    depositStart[msg.sender] = depositStart[msg.sender] + block.timestamp;\r\n\r\n    //set msg.sender deposit status to true\r\n    isDeposited[msg.sender] = true;\r\n    \r\n    //emit Deposit event\r\n    emit Deposit(msg.sender, msg.value, block.timestamp);\r\n  }\r\n\r\n  function withdraw() public {\r\n    //check if msg.sender deposit status is true\r\n    require(isDeposited[msg.sender] == true, \"Error: no previous deposit!\");\r\n    \r\n    //assign msg.sender ether deposit balance to variable for event\r\n    uint userBalance = etherBalanceOf[msg.sender];\r\n\r\n    //check user's hodl time\r\n    uint depositTime = block.timestamp - depositStart[msg.sender];\r\n\r\n    //calc interest per second\r\n    uint interestPerSecond = 31668017 * (etherBalanceOf[msg.sender]/10**16);\r\n    \r\n    //calc accrued interest\r\n    uint interest = interestPerSecond*depositTime;\r\n\r\n    //send eth to user\r\n    payable(msg.sender).transfer(userBalance);\r\n    \r\n    //send interest in tokens to user\r\n    token.mint(msg.sender, interest);\r\n\r\n    //reset depositer data\r\n    depositStart[msg.sender] = 0;\r\n    etherBalanceOf[msg.sender] = 0;\r\n    isDeposited[msg.sender] = false;\r\n    \r\n    //emit event\r\n    emit Withdraw(msg.sender, userBalance, depositTime, interest);\r\n  }\r\n\r\n  function borrow() payable public {\r\n    //check if collateral is >= than 0.01 ETH\r\n    //check if user doesn't have active loan\r\n\r\n    //add msg.value to ether collateral\r\n\r\n    //calc tokens amount to mint, 50% of msg.value\r\n\r\n    //mint&send tokens to user\r\n\r\n    //activate borrower's loan status\r\n\r\n    //emit event\r\n  }\r\n\r\n  function payOff() public {\r\n    //check if loan is active\r\n    //transfer tokens from user back to the contract\r\n\r\n    //calc fee\r\n\r\n    //send user's collateral minus fee\r\n\r\n    //reset borrower's data\r\n\r\n    //emit event\r\n  }\r\n}",
  "sourcePath": "/Users/tim/_Dapp_ex/DappU5_dbank/src/contracts/dBank.sol",
  "compiler": {
    "name": "solc",
    "version": "0.8.0+commit.c7dfd78e.Emscripten.clang"
  },
  "schemaVersion": "3.4.1",
  "updatedAt": "2021-07-20T17:25:10.107Z",
  "networkType": "ethereum",
  "devdoc": {
    "kind": "dev",
    "methods": {},
    "version": 1
  },
  "userdoc": {
    "kind": "user",
    "methods": {},
    "version": 1
  }
}